{
  "_format": "hh-sol-artifact-1",
  "contractName": "Assessment",
  "sourceName": "contracts/Assessment.sol",
  "abi": [
    {
      "inputs": [
        {
          "internalType": "uint256",
          "name": "initBalance",
          "type": "uint256"
        }
      ],
      "stateMutability": "payable",
      "type": "constructor"
    },
    {
      "inputs": [
        {
          "internalType": "uint256",
          "name": "balance",
          "type": "uint256"
        },
        {
          "internalType": "uint256",
          "name": "withdrawAmount",
          "type": "uint256"
        }
      ],
      "name": "InsufficientBalance",
      "type": "error"
    },
    {
      "anonymous": false,
      "inputs": [
        {
          "indexed": false,
          "internalType": "uint256",
          "name": "amount",
          "type": "uint256"
        }
      ],
      "name": "Deposit",
      "type": "event"
    },
    {
      "anonymous": false,
      "inputs": [
        {
          "indexed": true,
          "internalType": "address",
          "name": "recipient",
          "type": "address"
        },
        {
          "indexed": false,
          "internalType": "uint256",
          "name": "amount",
          "type": "uint256"
        }
      ],
      "name": "TransferBalance",
      "type": "event"
    },
    {
      "anonymous": false,
      "inputs": [
        {
          "indexed": false,
          "internalType": "uint256",
          "name": "amount",
          "type": "uint256"
        }
      ],
      "name": "Withdraw",
      "type": "event"
    },
    {
      "inputs": [],
      "name": "balance",
      "outputs": [
        {
          "internalType": "uint256",
          "name": "",
          "type": "uint256"
        }
      ],
      "stateMutability": "view",
      "type": "function"
    },
    {
      "inputs": [
        {
          "internalType": "address",
          "name": "_account",
          "type": "address"
        }
      ],
      "name": "connectAccount",
      "outputs": [],
      "stateMutability": "nonpayable",
      "type": "function"
    },
    {
      "inputs": [],
      "name": "connectedAccountsCount",
      "outputs": [
        {
          "internalType": "uint256",
          "name": "",
          "type": "uint256"
        }
      ],
      "stateMutability": "view",
      "type": "function"
    },
    {
      "inputs": [
        {
          "internalType": "uint256",
          "name": "_amount",
          "type": "uint256"
        }
      ],
      "name": "deposit",
      "outputs": [],
      "stateMutability": "payable",
      "type": "function"
    },
    {
      "inputs": [
        {
          "internalType": "address",
          "name": "_account",
          "type": "address"
        }
      ],
      "name": "disconnectAccount",
      "outputs": [],
      "stateMutability": "nonpayable",
      "type": "function"
    },
    {
      "inputs": [],
      "name": "getBalance",
      "outputs": [
        {
          "internalType": "uint256",
          "name": "",
          "type": "uint256"
        }
      ],
      "stateMutability": "view",
      "type": "function"
    },
    {
      "inputs": [],
      "name": "getConnectedAccountsCount",
      "outputs": [
        {
          "internalType": "uint256",
          "name": "",
          "type": "uint256"
        }
      ],
      "stateMutability": "view",
      "type": "function"
    },
    {
      "inputs": [
        {
          "internalType": "address",
          "name": "",
          "type": "address"
        }
      ],
      "name": "isConnected",
      "outputs": [
        {
          "internalType": "bool",
          "name": "",
          "type": "bool"
        }
      ],
      "stateMutability": "view",
      "type": "function"
    },
    {
      "inputs": [],
      "name": "isContractOwner",
      "outputs": [
        {
          "internalType": "bool",
          "name": "",
          "type": "bool"
        }
      ],
      "stateMutability": "view",
      "type": "function"
    },
    {
      "inputs": [],
      "name": "owner",
      "outputs": [
        {
          "internalType": "address payable",
          "name": "",
          "type": "address"
        }
      ],
      "stateMutability": "view",
      "type": "function"
    },
    {
      "inputs": [
        {
          "internalType": "address",
          "name": "_recipient",
          "type": "address"
        },
        {
          "internalType": "uint256",
          "name": "_amount",
          "type": "uint256"
        }
      ],
      "name": "transferBalance",
      "outputs": [],
      "stateMutability": "nonpayable",
      "type": "function"
    },
    {
      "inputs": [
        {
          "internalType": "uint256",
          "name": "_withdrawAmount",
          "type": "uint256"
        }
      ],
      "name": "withdraw",
      "outputs": [],
      "stateMutability": "nonpayable",
      "type": "function"
    }
  ],
  "bytecode": "0x60806040526040516110093803806110098339818101604052810190610025919061010d565b336000806101000a81548173ffffffffffffffffffffffffffffffffffffffff021916908373ffffffffffffffffffffffffffffffffffffffff160217905550806001819055506001600260003373ffffffffffffffffffffffffffffffffffffffff1673ffffffffffffffffffffffffffffffffffffffff16815260200190815260200160002060006101000a81548160ff02191690831515021790555060016003819055505061013a565b600080fd5b6000819050919050565b6100ea816100d7565b81146100f557600080fd5b50565b600081519050610107816100e1565b92915050565b600060208284031215610123576101226100d2565b5b6000610131848285016100f8565b91505092915050565b610ec0806101496000396000f3fe6080604052600436106100a75760003560e01c80637f7dcdbf116100645780637f7dcdbf146101a85780638da5cb5b146101d3578063b69ef8a8146101fe578063b6b55f2514610229578063cce662bf14610245578063d21685f414610282576100a7565b806312065fe0146100ac578063251e2aaa146100d75780632e1a7d4d1461010257806337a1a9871461012b57806356a6d9ef14610154578063588708ed1461017d575b600080fd5b3480156100b857600080fd5b506100c16102ab565b6040516100ce9190610967565b60405180910390f35b3480156100e357600080fd5b506100ec6102b5565b6040516100f99190610967565b60405180910390f35b34801561010e57600080fd5b50610129600480360381019061012491906109b3565b6102bb565b005b34801561013757600080fd5b50610152600480360381019061014d9190610a3e565b61040c565b005b34801561016057600080fd5b5061017b60048036038101906101769190610a6b565b610512565b005b34801561018957600080fd5b50610192610697565b60405161019f9190610967565b60405180910390f35b3480156101b457600080fd5b506101bd6106a1565b6040516101ca9190610ac6565b60405180910390f35b3480156101df57600080fd5b506101e86106f8565b6040516101f59190610b02565b60405180910390f35b34801561020a57600080fd5b5061021361071c565b6040516102209190610967565b60405180910390f35b610243600480360381019061023e91906109b3565b610722565b005b34801561025157600080fd5b5061026c60048036038101906102679190610a3e565b610828565b6040516102799190610ac6565b60405180910390f35b34801561028e57600080fd5b506102a960048036038101906102a49190610a3e565b610848565b005b6000600154905090565b60035481565b60008054906101000a900473ffffffffffffffffffffffffffffffffffffffff1673ffffffffffffffffffffffffffffffffffffffff163373ffffffffffffffffffffffffffffffffffffffff1614610349576040517f08c379a000000000000000000000000000000000000000000000000000000000815260040161034090610ba0565b60405180910390fd5b6000600154905081600154101561039b57600154826040517fcf479181000000000000000000000000000000000000000000000000000000008152600401610392929190610bc0565b60405180910390fd5b81600160008282546103ad9190610c18565b9250508190555081816103c09190610c18565b600154146103d1576103d0610c4c565b5b7f5b6b431d4476a211bb7d41c20d1aab9ae2321deee0d20be3d9fc9b1093fa6e3d826040516104009190610967565b60405180910390a15050565b60011515600260008373ffffffffffffffffffffffffffffffffffffffff1673ffffffffffffffffffffffffffffffffffffffff16815260200190815260200160002060009054906101000a900460ff1615151461049f576040517f08c379a000000000000000000000000000000000000000000000000000000000815260040161049690610cc7565b60405180910390fd5b6000600260008373ffffffffffffffffffffffffffffffffffffffff1673ffffffffffffffffffffffffffffffffffffffff16815260200190815260200160002060006101000a81548160ff0219169083151502179055506003600081548092919061050a90610ce7565b919050555050565b60008054906101000a900473ffffffffffffffffffffffffffffffffffffffff1673ffffffffffffffffffffffffffffffffffffffff163373ffffffffffffffffffffffffffffffffffffffff16146105a0576040517f08c379a000000000000000000000000000000000000000000000000000000000815260040161059790610ba0565b60405180910390fd5b6001548111156105e5576040517f08c379a00000000000000000000000000000000000000000000000000000000081526004016105dc90610d82565b60405180910390fd5b80600160008282546105f79190610c18565b925050819055508173ffffffffffffffffffffffffffffffffffffffff166108fc829081150290604051600060405180830381858888f19350505050158015610644573d6000803e3d6000fd5b508173ffffffffffffffffffffffffffffffffffffffff167fec5cd143316aaf3d51add82b3510d4165455628ea20bd4d3a8a6d88a23239acf8260405161068b9190610967565b60405180910390a25050565b6000600354905090565b60008060009054906101000a900473ffffffffffffffffffffffffffffffffffffffff1673ffffffffffffffffffffffffffffffffffffffff163373ffffffffffffffffffffffffffffffffffffffff1614905090565b60008054906101000a900473ffffffffffffffffffffffffffffffffffffffff1681565b60015481565b6000600154905060008054906101000a900473ffffffffffffffffffffffffffffffffffffffff1673ffffffffffffffffffffffffffffffffffffffff163373ffffffffffffffffffffffffffffffffffffffff16146107b7576040517f08c379a00000000000000000000000000000000000000000000000000000000081526004016107ae90610ba0565b60405180910390fd5b81600160008282546107c99190610da2565b9250508190555081816107dc9190610da2565b600154146107ed576107ec610c4c565b5b7f4d6ce1e535dbade1c23defba91e23b8f791ce5edc0cc320257a2b364e4e384268260405161081c9190610967565b60405180910390a15050565b60026020528060005260406000206000915054906101000a900460ff1681565b60001515600260008373ffffffffffffffffffffffffffffffffffffffff1673ffffffffffffffffffffffffffffffffffffffff16815260200190815260200160002060009054906101000a900460ff161515146108db576040517f08c379a00000000000000000000000000000000000000000000000000000000081526004016108d290610e22565b60405180910390fd5b6001600260008373ffffffffffffffffffffffffffffffffffffffff1673ffffffffffffffffffffffffffffffffffffffff16815260200190815260200160002060006101000a81548160ff0219169083151502179055506003600081548092919061094690610e42565b919050555050565b6000819050919050565b6109618161094e565b82525050565b600060208201905061097c6000830184610958565b92915050565b600080fd5b6109908161094e565b811461099b57600080fd5b50565b6000813590506109ad81610987565b92915050565b6000602082840312156109c9576109c8610982565b5b60006109d78482850161099e565b91505092915050565b600073ffffffffffffffffffffffffffffffffffffffff82169050919050565b6000610a0b826109e0565b9050919050565b610a1b81610a00565b8114610a2657600080fd5b50565b600081359050610a3881610a12565b92915050565b600060208284031215610a5457610a53610982565b5b6000610a6284828501610a29565b91505092915050565b60008060408385031215610a8257610a81610982565b5b6000610a9085828601610a29565b9250506020610aa18582860161099e565b9150509250929050565b60008115159050919050565b610ac081610aab565b82525050565b6000602082019050610adb6000830184610ab7565b92915050565b6000610aec826109e0565b9050919050565b610afc81610ae1565b82525050565b6000602082019050610b176000830184610af3565b92915050565b600082825260208201905092915050565b7f596f7520617265206e6f7420746865206f776e6572206f66207468697320616360008201527f636f756e74000000000000000000000000000000000000000000000000000000602082015250565b6000610b8a602583610b1d565b9150610b9582610b2e565b604082019050919050565b60006020820190508181036000830152610bb981610b7d565b9050919050565b6000604082019050610bd56000830185610958565b610be26020830184610958565b9392505050565b7f4e487b7100000000000000000000000000000000000000000000000000000000600052601160045260246000fd5b6000610c238261094e565b9150610c2e8361094e565b9250828203905081811115610c4657610c45610be9565b5b92915050565b7f4e487b7100000000000000000000000000000000000000000000000000000000600052600160045260246000fd5b7f4163636f756e74206973206e6f7420636f6e6e65637465640000000000000000600082015250565b6000610cb1601883610b1d565b9150610cbc82610c7b565b602082019050919050565b60006020820190508181036000830152610ce081610ca4565b9050919050565b6000610cf28261094e565b915060008203610d0557610d04610be9565b5b600182039050919050565b7f496e73756666696369656e742062616c616e636520666f72207472616e73666560008201527f7200000000000000000000000000000000000000000000000000000000000000602082015250565b6000610d6c602183610b1d565b9150610d7782610d10565b604082019050919050565b60006020820190508181036000830152610d9b81610d5f565b9050919050565b6000610dad8261094e565b9150610db88361094e565b9250828201905080821115610dd057610dcf610be9565b5b92915050565b7f4163636f756e7420697320616c726561647920636f6e6e656374656400000000600082015250565b6000610e0c601c83610b1d565b9150610e1782610dd6565b602082019050919050565b60006020820190508181036000830152610e3b81610dff565b9050919050565b6000610e4d8261094e565b91507fffffffffffffffffffffffffffffffffffffffffffffffffffffffffffffffff8203610e7f57610e7e610be9565b5b60018201905091905056fea26469706673582212201fb470c0dfcaaf55df847e9d44a67798d8e59c4dc0eda23e923f19c81855e36764736f6c63430008110033",
  "linkReferences": {},
  "deployedLinkReferences": {}
}